{
  "contractName": "Inheritance",
  "abi": [
    {
      "inputs": [],
      "stateMutability": "nonpayable",
      "type": "constructor"
    },
    {
      "inputs": [],
      "name": "inheritableAmount",
      "outputs": [
        {
          "internalType": "uint256",
          "name": "",
          "type": "uint256"
        }
      ],
      "stateMutability": "view",
      "type": "function",
      "constant": true
    },
    {
      "inputs": [],
      "name": "inheritor",
      "outputs": [
        {
          "internalType": "address payable",
          "name": "",
          "type": "address"
        }
      ],
      "stateMutability": "view",
      "type": "function",
      "constant": true
    },
    {
      "inputs": [],
      "name": "owner",
      "outputs": [
        {
          "internalType": "address",
          "name": "",
          "type": "address"
        }
      ],
      "stateMutability": "view",
      "type": "function",
      "constant": true
    },
    {
      "inputs": [
        {
          "internalType": "address payable",
          "name": "inheritorAddress",
          "type": "address"
        }
      ],
      "name": "setInheritor",
      "outputs": [],
      "stateMutability": "nonpayable",
      "type": "function"
    },
    {
      "inputs": [],
      "name": "depositInheritance",
      "outputs": [],
      "stateMutability": "payable",
      "type": "function",
      "payable": true
    },
    {
      "inputs": [
        {
          "internalType": "uint256",
          "name": "withdrawAmount",
          "type": "uint256"
        }
      ],
      "name": "withdrawInheritance",
      "outputs": [],
      "stateMutability": "nonpayable",
      "type": "function"
    },
    {
      "inputs": [],
      "name": "distributeInheritance",
      "outputs": [],
      "stateMutability": "nonpayable",
      "type": "function"
    }
  ],
  "bytecode": "0x608060405234801561001057600080fd5b50336000806101000a81548173ffffffffffffffffffffffffffffffffffffffff021916908373ffffffffffffffffffffffffffffffffffffffff160217905550610954806100606000396000f3fe6080604052600436106100705760003560e01c806336a52a181161004e57806336a52a18146100f257806353a41b501461011d5780638da5cb5b14610134578063a33dade11461015f57610070565b806312b22256146100755780631957798f1461009e578063324467b1146100c9575b600080fd5b34801561008157600080fd5b5061009c600480360381019061009791906104c0565b610169565b005b3480156100aa57600080fd5b506100b36101ad565b6040516100c09190610681565b60405180910390f35b3480156100d557600080fd5b506100f060048036038101906100eb91906104e9565b6101b3565b005b3480156100fe57600080fd5b506101076102e6565b60405161011491906105e6565b60405180910390f35b34801561012957600080fd5b5061013261030c565b005b34801561014057600080fd5b50610149610385565b60405161015691906105cb565b60405180910390f35b6101676103a9565b005b80600260006101000a81548173ffffffffffffffffffffffffffffffffffffffff021916908373ffffffffffffffffffffffffffffffffffffffff16021790555050565b60015481565b60008054906101000a900473ffffffffffffffffffffffffffffffffffffffff1673ffffffffffffffffffffffffffffffffffffffff163373ffffffffffffffffffffffffffffffffffffffff1614610241576040517f08c379a000000000000000000000000000000000000000000000000000000000815260040161023890610661565b60405180910390fd5b6000811015610285576040517f08c379a000000000000000000000000000000000000000000000000000000000815260040161027c90610601565b60405180910390fd5b6001548111156102ca576040517f08c379a00000000000000000000000000000000000000000000000000000000081526004016102c190610621565b60405180910390fd5b80600160008282546102dc9190610703565b9250508190555050565b600260009054906101000a900473ffffffffffffffffffffffffffffffffffffffff1681565b6000600154111561038357600260009054906101000a900473ffffffffffffffffffffffffffffffffffffffff1673ffffffffffffffffffffffffffffffffffffffff166108fc6001549081150290604051600060405180830381858888f19350505050158015610381573d6000803e3d6000fd5b505b565b60008054906101000a900473ffffffffffffffffffffffffffffffffffffffff1681565b60008054906101000a900473ffffffffffffffffffffffffffffffffffffffff1673ffffffffffffffffffffffffffffffffffffffff163373ffffffffffffffffffffffffffffffffffffffff1614610437576040517f08c379a000000000000000000000000000000000000000000000000000000000815260040161042e90610661565b60405180910390fd5b600034101561047b576040517f08c379a000000000000000000000000000000000000000000000000000000000815260040161047290610641565b60405180910390fd5b346001600082825461048d91906106ad565b92505081905550565b6000813590506104a5816108f0565b92915050565b6000813590506104ba81610907565b92915050565b6000602082840312156104d257600080fd5b60006104e084828501610496565b91505092915050565b6000602082840312156104fb57600080fd5b6000610509848285016104ab565b91505092915050565b61051b81610749565b82525050565b61052a81610737565b82525050565b600061053d60338361069c565b9150610548826107b4565b604082019050919050565b6000610560603f8361069c565b915061056b82610803565b604082019050919050565b600061058360328361069c565b915061058e82610852565b604082019050919050565b60006105a660338361069c565b91506105b1826108a1565b604082019050919050565b6105c58161077b565b82525050565b60006020820190506105e06000830184610521565b92915050565b60006020820190506105fb6000830184610512565b92915050565b6000602082019050818103600083015261061a81610530565b9050919050565b6000602082019050818103600083015261063a81610553565b9050919050565b6000602082019050818103600083015261065a81610576565b9050919050565b6000602082019050818103600083015261067a81610599565b9050919050565b600060208201905061069660008301846105bc565b92915050565b600082825260208201905092915050565b60006106b88261077b565b91506106c38361077b565b9250827fffffffffffffffffffffffffffffffffffffffffffffffffffffffffffffffff038211156106f8576106f7610785565b5b828201905092915050565b600061070e8261077b565b91506107198361077b565b92508282101561072c5761072b610785565b5b828203905092915050565b60006107428261075b565b9050919050565b60006107548261075b565b9050919050565b600073ffffffffffffffffffffffffffffffffffffffff82169050919050565b6000819050919050565b7f4e487b7100000000000000000000000000000000000000000000000000000000600052601160045260246000fd5b7f576974686472617720616d6f756e74206d75737420626520677265617465722060008201527f7468616e206f7220657175616c7320746f203000000000000000000000000000602082015250565b7f576974686472617720616d6f756e74206d757374206265206c6573732074686160008201527f6e206f7220657175616c7320746f206465706f736974656420616d6f756e7400602082015250565b7f4465706f73697420616d6f756e74206d7573742062652067726561746572207460008201527f68616e206f7220657175616c7320746f20300000000000000000000000000000602082015250565b7f546869732066756e6374696f6e206973207265737472696374656420746f207460008201527f686520636f6e74726163742773206f776e657200000000000000000000000000602082015250565b6108f981610749565b811461090457600080fd5b50565b6109108161077b565b811461091b57600080fd5b5056fea2646970667358221220ea04fc2b780b35f019ab064b34e91b3420a3b28105b736aafa6bdcb712a82f7464736f6c63430008030033",
  "immutableReferences": {},
  "source": "// SPDX-License-Identifier: MIT\npragma solidity ^0.8.3;\n\ncontract Inheritance {\n    address public owner;\n\n    uint256 public inheritableAmount;\n    address payable public inheritor;\n\n    /* Modifiers */\n    modifier onlyOwner() {\n        require(\n            msg.sender == owner,\n            \"This function is restricted to the contract's owner\"\n        );\n        _;\n    }\n\n    constructor() {\n        owner = msg.sender;\n    }\n\n    function setInheritor(address payable inheritorAddress) public {\n        inheritor = inheritorAddress;\n    }\n\n    function depositInheritance() public payable onlyOwner {\n        require(\n            msg.value >= 0,\n            \"Deposit amount must be greater than or equals to 0\"\n        );\n        inheritableAmount += msg.value;\n    }\n\n    function withdrawInheritance(uint256 withdrawAmount) public onlyOwner {\n        require(\n            withdrawAmount >= 0,\n            \"Withdraw amount must be greater than or equals to 0\"\n        );\n        require(\n            withdrawAmount <= inheritableAmount,\n            \"Withdraw amount must be less than or equals to deposited amount\"\n        );\n        inheritableAmount -= withdrawAmount;\n    }\n\n    function distributeInheritance() public {\n        if (inheritableAmount > 0) {\n            inheritor.transfer(inheritableAmount);\n        }\n    }\n}\n",
  "sourcePath": "C:/Users/kengh/Desktop/coding-projects/pong-bot/Inheritance/contracts/Inheritance.sol",
  "compiler": {
    "name": "solc",
    "version": "0.8.3+commit.8d00100c.Emscripten.clang"
  },
  "schemaVersion": "3.3.4",
  "updatedAt": "2021-04-04T08:30:00.210Z",
  "networkType": "ethereum",
  "devdoc": {
    "kind": "dev",
    "methods": {},
    "version": 1
  },
  "userdoc": {
    "kind": "user",
    "methods": {},
    "version": 1
  }
}